:0300000002007289
:0C007200787FE4F6D8FD75810902008754
:0800870012009512002180FB1C
:0300950002007EE8
:10000300D3EF9400EE940040147DC87C00ED1D7086
:0D001300011CED4C70F7EF1F70E61E80E33E
:0100200022BD
:10003D008E088F091200980509E509700205087EE2
:04004D00007F01220D
:100051008E088F0912009B0509E509700205087ECB
:04006100007F0122F9
:060065007BFF7FE87E0333
:07006B0089828A83020093E1
:100021007A00793D1200657F887E131200037A0001
:0C00310079511200657F887E13020003E5
:03009800D2A622CB
:03009B00C2A622D8
:09007E0043A14053A2BF02009B04
:06008F008A838982E473FC
:00000001FF
